:100000000C947B000C94A3000C94A3000C94560D4C
:100010000C94560D0C94560D0C94A3000C94A30054
:100020000C94A3000C94A3000C94A3000C94D5058D
:100030000C94A3000C94A3000C94A3000C94A300B4
:100040000C940C0D0C94A3000C94200B0C94FA0A45
:100050000C94A3000C94A3000C94A3000C94A30094
:100060000C947E0E0C94A300B804DF04A604F904DB
:1000700019054D0541054D054D054D057C05C80487
:100080000C0A220A7309220AC309220A5109F90833
:10009000220A220A220A220A220AD107220AAE08CA
:1000A000220A3D0900000000240027002A00000069
:1000B0000000250028002B000404040404040404A8
:1000C0000202020202020303030303030102040803
:1000D00010204080010204081020010204081020B2
:1000E00000000008000201000003040700000000F7
:1000F00000000000421511241FBECFEFD8E0DEBF84
:10010000CDBF12E0A0E0B1E0EAE1F0E302C005906B
:100110000D92A432B107D9F725E0A4E2B2E001C004
:100120001D92AB34B207E1F710E0CBE7D0E004C09A
:100130002197FE010E94C416CA37D107C9F70E9451
:1001400074110C940B180C9400008091FA0290E04A
:100150002091FB02821B91090895089580E090E0B0
:100160000895A82FB0E0AC58BD4F9C91292F30E0E6
:10017000F901EE0FFF1F2E0F3F1FF901ED5DFA4F42
:10018000E081F0E09F01220F331FE20FF31FE250E6
:10019000FB4F80818F7B808380917202981306C011
:1001A000992379F09150909372020BC0882349F003
:1001B000E0917302EF5FE0937302F0E0ED5DFD4FBD
:1001C00090838FEF8C930895CF92DF92EF92FF92FE
:1001D0000F931F93CF93DF937C01262F972F8A01D4
:1001E00080917103882391F0C62FD72F6E01C40E22
:1001F000D51ECC15DD0571F06991D701ED91FC910B
:100200000190F081E02DC7010995F3CF642F822F73
:100210000E94AC0FC801DF91CF911F910F91FF9009
:10022000EF90DF90CF900895CF93DF931F92CDB7DB
:10023000DEB76983209171032223D1F020919403CA
:10024000203240F021E030E0FC013383228380E063
:1002500090E015C080917203E82FF0E0ED58FC4F5C
:10026000998190838F5F809372038093940305C07C
:1002700061E0CE0101960E94AC0F81E090E00F900A
:10028000DF91CF910895DF92EF92FF920F931F932A
:10029000CF93DF93EC01D62E7A01890188818C30CF
:1002A00008F06AC061E08D2D0E947F0C8881E82FE4
:1002B000F0E09F01220F331FE20FF31FE250FB4FCC
:1002C0009D2D9F732081207CD22ED92AD08260E27E
:1002D00072E0AB014E195F0957FF02C04D5F5F4FDF
:1002E0005595479555954795498340E659E09A01BC
:1002F000201B310B37FF02C02D5F3F4F35952795EF
:10030000359527952A836CE00E94B8169CE0899F5A
:10031000B001112440E050E09A01260F371FF90187
:10032000EE0FFF1F2E0F3F1FF901E250FB4F908190
:1003300096FD16C04F5F5F4F4C30510569F7811134
:100340000FC01092800082E080938100109285009F
:1003500010928400B19A80916F00826080936F0048
:10036000E881F0E0CF01880F991FE80FF91FE250F4
:10037000FB4F8081806480838881DF91CF911F91C2
:100380000F91FF90EF90DF900895BF92CF92DF9290
:10039000EF92FF920F931F93CF93DF9300D0CDB7CF
:1003A000DEB7833008F081C0282F220F220F220FE2
:1003B000285F253108F024E1B62EF82EE82EEE0C49
:1003C000EE0CEE0C30E0CC24C394E21610F58EEF68
:1003D0008E0D8231D8F40E2D10E0F801EB54FB4F56
:1003E0009081923098F4DD24D3948C2D8B2109F4E4
:1003F000D12C000F111F913009F043C03C29F801A6
:10040000E753FB4F8D2D90E091838083CC0CE394D8
:10041000DCCFF1100AC03C7FF8948BB1632F60955C
:1004200068233B21632B6BB92AC081E0F8121AC004
:100430002B2D2323F89495B1832F8F7380958923D7
:10044000922F9F73892B85B988B122952695269581
:100450002370329536953695337030958323822BF1
:1004600088B90DC03F70F89488B1632F660F660F8E
:10047000609568233B21330F330F632B68B9789461
:1004800014C0DD2009F4BBCFF801E753FB4F808196
:100490009181019709F4B3CF62E08E2D2A833983CD
:1004A0000E947F0C2A813981AACF0F900F90DF9193
:1004B000CF911F910F91FF90EF90DF90CF90BF9061
:1004C00008956F927F928F929F92AF92BF92CF9238
:1004D000DF92EF92FF920F931F93CF93DF931F92C0
:1004E000CDB7DEB7982F3B01843108F004C1082F47
:1004F00010E0F801EB54FB4F8081833009F490C089
:10050000843009F0F8C09250923108F0EDC0F80143
:10051000EC58FD4FE080F12C6701CC0CDD1C603203
:1005200082E078070CF042C077FD05C0653B71059D
:1005300024F4DB0104C0A0E001C0A4EBB0E0F601AC
:10054000EE0DFF1DED5DFA4F818128E830E0490195
:10055000881A910887FD9394880C991C880C991C23
:10056000092C000CAA08BB08828128E532E0281B70
:10057000310987FD3395220F331F220F331FA90145
:10058000330F660B770B9A01AB01281939094A0919
:100590005B090E947F1624EB30E040E050E00E94AF
:1005A0005516820E931EA41EB51E01C04B01F60106
:1005B000EE0DFF1DED5DFA4F20812C3008F094C048
:1005C000318188E890E0831B910937FD9395880F6E
:1005D000991F880F991F8816990684F0828148E533
:1005E00052E0481B510987FD5395440F551F440F96
:1005F000551FC401481559050CF4CA010297880F0C
:10060000991F4FB7F89430E0F901EE0FFF1F2E0F3E
:100610003F1FF901E250FB4F928381834FBF64C0BB
:10062000933049F08BEF890F823028F087EF890FE4
:10063000833008F059C061E0892F99830E947F0CB4
:1006400099816114710411F460E005C08FEF6816A0
:10065000710429F461E0892F0E94330C45C0F80130
:10066000E052FF4FE491E330F9F048F4E130B9F0A3
:10067000E230A1F584B5806284BD68BC35C0E73046
:10068000E9F0E83019F1E43049F5809180008062AA
:100690008093800070928B0060928A0025C084B5A0
:1006A000806884BD67BC20C0809180008068809392
:1006B0008000709289006092880016C08091B0001E
:1006C00080688093B0006092B3000EC08091B0004B
:1006D00080628093B0006092B40006C080E8681623
:1006E00071040CF0B7CFB0CF000F111FF801E75322
:1006F000FB4F718260820F90DF91CF911F910F911C
:10070000FF90EF90DF90CF90BF90AF909F908F9031
:100710007F906F9008959EEF980F923180F4E82FAC
:10072000F0E0DF01AB54BB4F9C91913041F4EE0FF0
:10073000FF1FE753FB4F608371830C94330C0895C4
:10074000DB01909172029C30A8F530917302682F02
:1007500070E0332369F0E32FF0E0ED5DFD4F808121
:10076000FB01EC58FD4F808331503093730207C07A
:10077000FB01EC58FD4F90839F5F90937202FB0149
:10078000EC58FD4F808190E09C01220F331F820FB7
:10079000931F1A161B0634F4141615061CF49A013E
:1007A000AD0104C020E639E040E252E08D5D9A4F91
:1007B0000C9443018DE291E00C948510CF93863028
:1007C00080F54091D0025091D10221E030E0672BBA
:1007D00081F4B90102C0660F771F8A95E2F7CB0159
:1007E00080959095842395239093D1028093D00295
:1007F00018C0082E02C0220F331F0A94E2F7242BE0
:10080000352B3093D1022093D00290918C0291111C
:1008100008C0C82F0E94BB0CBC018C2FCF910C9438
:10082000D40FCF9108958F929F92AF92BF92CF92A3
:10083000DF92EF92FF920F931F93CF93DF931F925C
:10084000CDB7DEB7C82ED12C96012E5C3B4F4901A7
:10085000F901ED57FF4F90819F3709F44DC1963054
:1008600041F490918B02992321F06630710509F0D3
:1008700025C17B01182F0EEF080F0231F8F4643008
:100880007105E1F0F601EC58FD4F80818C30B0F439
:1008900090E0FC01EE0FFF1F8E0F9F1FFC01ED5D2E
:1008A000FA4F808190E0FC01EE0FFF1F8E0F9F1F1B
:1008B000FC01E250FB4F808186FD06C192EF910F53
:1008C000963068F461E070E082E0E816F10411F01F
:1008D00060E070E0892F99830E94DE0399810231E4
:1008E00018F5E12FE695E695E695812F8770F0E003
:1008F000E256FD4FE114F10421F02BE0E216F10481
:1009000049F421E030E001C0220F8A95EAF78081A6
:10091000282B09C021E030E001C0220F8A95EAF7B8
:1009200020958081282320835601AA0CBB1CF50149
:10093000E753FB4F118210823CE0E316F10408F00C
:10094000ACC0F701EC5CFF4F0C94C416963008F075
:10095000D3C0023120F460E0812F0E947F0CF401AB
:10096000ED57FF4F80818F3709F4C6C082E093C0F6
:10097000023108F0C1C060E0812F0E947F0CF401B9
:10098000ED57FF4F80818F3709F4B6C01082B4C095
:10099000023108F0B1C062E0812F0E947F0CF401A7
:1009A000ED57FF4F80818F3711F08BE08083F50189
:1009B000E753FB4F81E090E0918380839DC002313B
:1009C00008F09AC0F401ED57FF4F8081833021F485
:1009D00060E0812F0E94330C61E0812F0E947F0C28
:1009E000F401ED57FF4F80818F3709F485C081E016
:1009F00052C0133049F08BEF810F823028F087EF1F
:100A0000810F833008F078C061E0812F0E947F0C55
:100A100061E0812F0E947F0C60E0812F0E94330CE7
:100A2000F401ED57FF4F80818F3709F465C083E0F3
:100A300032C0023108F060C0F401ED57FF4F8081F1
:100A40008F3711F084E08083F601EC58FD4F8081F0
:100A50008F3FF1F190E0FC01EE0FFF1F8E0F9F1F03
:100A6000FC01ED5DFA4F808190E0FC01EE0FFF1F6D
:100A70008E0F9F1FFC01E250FB4F808186FD3CC022
:100A800027C012511230C0F5F401ED57FF4F80819D
:100A90008F3791F186E080832FC081E491E00F9041
:100AA000DF91CF911F910F91FF90EF90DF90CF904A
:100AB000BF90AF909F908F900C94851010928B02F6
:100AC0009FEF90930001D5CE812F0E94B100F6CE0A
:100AD0004FEF5FEF6FEF7FEF812F0F90DF91CF919F
:100AE0001F910F91FF90EF90DF90CF90BF90AF904C
:100AF0009F908F900C94A0030F90DF91CF911F9146
:100B00000F91FF90EF90DF90CF90BF90AF909F90AC
:100B10008F9008950F931F93CF93DF9381E080937D
:100B20008C0280918B02882329F010928B028FEF28
:100B3000809300011092A10210929E0210928802EE
:100B40001092A20210929F02109289021092A302A8
:100B50001092A00210928A0204E712E0C0E0DFEFD8
:100B600082EF8C0F863018F462E070E006C08EEFE2
:100B70008C0F823128F461E070E08C2F0E94130406
:100B8000F801D1938F01CF5FC43151F71092D10298
:100B90001092D002109273021092720210928C0284
:100BA000DF91CF911F910F9108951F920F920FB671
:100BB0000F9211242F933F934F935F936F937F93E3
:100BC0008F939F93AF93BF93EF93FF9380918D0289
:100BD00087FF05C010928500109284001BC02091F1
:100BE0008D02022E000C330B8091220590E0281715
:100BF000390784F480918D02082E000C990BFC01BA
:100C0000EE0FFF1F8E0F9F1FFC01E250FB4F8081F4
:100C100086FD15C080918D028F5F80938D0220919B
:100C20008D02022E000C330B8091220590E02817D4
:100C30003907C4F480918D028C3064F113C0809127
:100C40008D02082E000C990BFC01EE0FFF1F8E0F7A
:100C50009F1FFC01E250FB4F808160E08F730E9478
:100C6000330CD8CF80918400909185000496803415
:100C70009C4918F480E49CE905C08091840090911F
:100C80008500049690938900809388008FEF80936D
:100C90008D023BC0209184003091850080918D02AF
:100CA000082E000C990BFC01EE0FFF1F8E0F9F1FEB
:100CB000FC01E250FB4F81819281820F931F909340
:100CC00089008093880080918D02082E000C990B7A
:100CD000FC01EE0FFF1F8E0F9F1FFC01E250FB4F28
:100CE000808186FF12C080918D02082E000C990B26
:100CF000FC01EE0FFF1F8E0F9F1FFC01E250FB4F08
:100D0000808161E08F730E94330CFF91EF91BF915E
:100D1000AF919F918F917F916F915F914F913F9193
:100D20002F910F900FBE0F901F901895FF920F9369
:100D30001F93CF93DF9300D0CDB7DEB7082F10E01D
:100D4000F801E256FD4F9081F62EF92208571D4F0B
:100D5000411104C0F80190819F1511F12F2D30E051
:100D60003A832983A0917204B09173041097B1F073
:100D7000682FED91FC9111976F7060690190F0817F
:100D8000E02DCD01099522E030E0AE014F5F5F4FCD
:100D900062E070E082E794E00E94600DF801F0826A
:100DA0000F900F90DF91CF911F910F91FF900895B9
:100DB000833020F5282F30E0F901EF55FD4F608397
:100DC000672BE1F0F901E256FD4F9081811103C0DC
:100DD00069B16C7F0FC0813049F463B136B140E432
:100DE000349F900111246F73622B04C066B16C7341
:100DF00066956695692341E00C9496060895CF9216
:100E0000DF92EF92FF920F931F93CF93DF931F9286
:100E1000CDB7DEB7E82E6B01F42E6F3F8FEF78076A
:100E200009F181E080937103E092930310927203C1
:100E30001092940382EF94E029830E941401298187
:100E4000822F0E94C810E0917002F0917102E2308E
:100E5000F10550F0EE0FFF1FEE0FFF1F3597319792
:100E6000F1F702C0C12CD12C809170038111FCCF0D
:100E70002F2D80E28F1508F420E281E0809370032B
:100E800080936F039FEF90936E0310926D03920F08
:100E900090936C0380934B0380914B039E2D990F8D
:100EA000892B80934B0380914A03813061F4109227
:100EB0004A0380914B038093BB008091BC0083FD6B
:100EC000F8CF85EC01C085EE8093BC008091700363
:100ED0008130E1F380916D03821710F420916D034E
:100EE000ACE4B3E04AED52E0FA018E2F841B821786
:100EF00018F48D918193F9CF1092FB022093FA029E
:100F00000F2D10E030E0021713071CF482E591E08A
:100F100005C02017310724F48FE691E00E94851068
:100F2000E0923002C0923102C12CD12CC016D10601
:100F300034F49091FA028091FB02981312C0F3945A
:100F4000F3946F2D70E040E352E087E70F90DF915C
:100F5000CF911F910F91FF90EF90DF90CF900C9465
:100F6000381082EF94E00E94F70BF601E05DFD4F30
:100F700082838FEFC81AD80AD9CFEF92FF920F93CE
:100F80001F93CF93DF9390E0FC01E956F109E23122
:100F9000F10508F057C2EA01162FE05CFF4F0C94F0
:100FA000C4162981922F987125FF03C08BE891E028
:100FB0005AC0888131E026FB222720F92327983068
:100FC00069F160F491113EC23093710380939303F1
:100FD000109272031092940302E007C0903109F45A
:100FE0003CC0983109F46DC02DC2011778F4FE01A0
:100FF000E00FF11D8181608120E8829F601911243A
:1010000082EF94E00E9414010E5FEFCF81E00E9416
:10101000C81083E191E00197F1F714C24A816B8116
:10102000163069F430E8639FB0011124640F711D1C
:101030009D814C81E0E89E9F4019112406C0F0E894
:101040006F9F401911246FEF7FEFDF91CF911F91B8
:101050000F91FF90EF900C94FF06E0910001E730B4
:1010600054F08BEA91E0DF91CF911F910F91FF90A7
:10107000EF900C9485109A814B81663069F430E8CA
:10108000439FA0011124490F511D3D819C8160E8BF
:10109000369F9019112406C0F0E84F9F9019112433
:1010A0004FEF5FEFEF5FE093000135E0E302F00107
:1010B0001124E855FD4F8083528341839383248319
:1010C000C1C120910001121614F08FEF44C090E0CE
:1010D000622F022E000C770B35E0492F50E0641789
:1010E000750774F0349FF001359FF00D1124E85519
:1010F000FD4F4081481302C085E026C09F5FEDCFC1
:1011000090E0FACF9830F8F4FA0131968E9FD00132
:101110008F9FB00D1124A855BD4F3C91849FF001C5
:10112000859FF00D1124E855FD4F308311964D91A8
:101130005C9112975283418313963C9113973383AA
:1011400014963C9134839F5F492F50E064177507D4
:10115000CCF68FEF820F8093000174C128818981C2
:10116000623060F060E8869FC0011124820F911DFB
:10117000009721F0909371028093700280918B020E
:10118000811160C1C0E08EEE8C0F823028F466E0E1
:1011900070E08C2F0E941304CF5FC431A1F781E06F
:1011A00080938B021092FB021092FA02109272034B
:1011B000109294031092700380936F0310924A036D
:1011C00061E082E10E94330C61E083E10E94330C14
:1011D0008091B9008E7F8093B9008091B9008D7F96
:1011E0008093B90088E48093B80085E48093BC00C4
:1011F00029C1653008F426C11881F9800A81EB8085
:10120000CC818EEF810F823108F01CC1E12FF0E01C
:10121000EC58FD4F20812C30B0F430E0F901EE0F96
:10122000FF1F2E0F3F1FF901ED5DFA4F208130E0C7
:10123000F901EE0FFF1F2E0F3F1FF901E250FB4F88
:10124000808186FDFBC080E8C89FA00111244E0D5F
:10125000511D90E8099FB00111246F0D711D812F60
:101260000E94A00364E070E0812FDF91CF911F9175
:101270000F91FF90EF900C941304623008F4E2C0D9
:1012800028818981E0E88E9FC0011124820F911D81
:10129000009711F481E090E09093020180930101A6
:1012A000D1C0623008F4CEC0698170E0123091F094
:1012B0008A81F0E88F9FC0011124682B792B1330AD
:1012C00049F08B8190E090E4899F902D882711242C
:1012D000682B792B8881DF91CF911F910F91FF901F
:1012E000EF900C94610280EF0E94BB108CE60E948C
:1012F000BB10CEEF84EF8C0F863038F482E00E9472
:10130000BB108AE00E94BB1009C0C13039F483E0F1
:101310000E94BB1088E00E94BB1008C08DEF8C0FAC
:101320008230A8F389EF8C0F833088F3C23130F418
:1013300084E00E94BB108EE00E94BB1080EF8C0FF7
:10134000823030F486E00E94BB1081E00E94BB1026
:101350008FE70E94BB10CF5FC23121F1C23150F63E
:1013600080E00E94BB1081E00E94BB108BE00E94D5
:10137000BB1081E00E94BB1081E00E94BB1081E0A5
:101380000E94BB10B7CF662309F45CC0C88180EF10
:101390000E94BB108EE60E94BB108C2F0E94BB10D7
:1013A000C43148F087EFDF91CF911F910F91FF90EB
:1013B000EF900C94BB10D0E0FE01EB54FB4F80810A
:1013C0000E94BB10CC0FDD1F8E0107531B4FF8018D
:1013D00080818F770E94BB10F801808191819C01F0
:1013E0002078232B39F0880F892F881F990B8F774E
:1013F0000E94BB10C753DB4F888199819C01222733
:10140000307C232B79F2990F880B990F982F881F26
:101410008F770E94BB10C6CF80EF0E94BB108AE678
:101420000E94BB10C2EFC63010F48C2F01C08FE7B2
:101430000E94BB10CF5FC630B1F7B4CF812F0E949E
:10144000B10001CFDF91CF911F910F91FF90EF90ED
:101450000895CF92DF92EF92FF920F931F93CF9355
:10146000DF936C017A018B01C0E0D0E0CE15DF057F
:1014700089F0D8016D918D01D601ED91FC9101901B
:10148000F081E02DC6010995892B11F47E0102C07F
:101490002196ECCFC701DF91CF911F910F91FF9063
:1014A000EF90DF90CF900895FC01538D448D252F50
:1014B00030E0842F90E0821B930B541710F0CF96EE
:1014C000089501970895FC01918D828D981761F020
:1014D000828DDF01A80FB11D5D968C91928D9F5F6B
:1014E0009F73928F90E008958FEF9FEF0895FC0116
:1014F000918D828D981731F0828DE80FF11D858DC9
:1015000090E008958FEF9FEF089585E993E00E94A2
:10151000520B21E0892B09F420E0822F08950E94CC
:10152000F717EF92FF920F931F93CF93DF93EC0186
:1015300081E0888F9B8D8C8D981305C0E889F9898F
:10154000808185FD24C0F62E0B8D10E00F5F1F4FAC
:101550000F731127E02E8C8DE8120CC00FB607FC1C
:10156000FACFE889F989808185FFF5CFCE010E9405
:10157000120CF1CF8B8DFE01E80FF11DE35AFF4FE6
:10158000F0820B8FEA89FB898081806207C0EE8937
:10159000FF896083E889F98980818064808381E0A4
:1015A00090E0DF91CF911F910F91FF90EF90089500
:1015B000CF93DF93EC01888D8823C9F0EA89FB89FA
:1015C000808185FD05C0A889B9898C9186FD0FC0F1
:1015D0000FB607FCF5CF808185FFF2CFA889B989C6
:1015E0008C9185FFEDCFCE010E94120CE7CFDF91E9
:1015F000CF9108951F920F920FB60F9211242F933F
:101600003F934F935F936F937F938F939F93AF938A
:10161000BF93EF93FF9385E993E00E94120CFF9133
:10162000EF91BF91AF919F918F917F916F915F915A
:101630004F913F912F910F900FBE0F901F901895D3
:101640001F920F920FB60F9211242F938F939F9397
:10165000EF93FF93E091A503F091A6038081E091C1
:10166000AB03F091AC0382FD12C090818091AE0378
:101670008F5F8F732091AF03821751F0E091AE031B
:10168000F0E0EB56FC4F958F8093AE0301C0808154
:10169000FF91EF919F918F912F910F900FBE0F901F
:1016A0001F901895FC01918D228D892F90E0805C10
:1016B0009F4F821B91098F739927089580E090E0D6
:1016C000892B29F00E94850A81110C94000008954D
:1016D0003FB7F8948091460390914703A091480347
:1016E000B091490326B5A89B05C02F3F19F001967C
:1016F000A11DB11D3FBFBA2FA92F982F8827820F98
:10170000911DA11DB11DBC01CD0142E0660F771FE7
:10171000881F991F4A95D1F70895E0919C02F09196
:101720009D02309709F009940895862F642FE09167
:101730009A02F0919B02309711F0A9010994089543
:101740000895862FE0919202F0919302309711F064
:10175000BA0109940895862FE0919402F0919502C0
:10176000309711F0BA0109940895862FE0918E0206
:10177000F0918F02309711F0BA0109940895862FE5
:10178000E0919002F0919102309711F0BA01099422
:101790000895862FE0919602F0919702309711F00C
:1017A000BA0109940895862FE0919802F091990268
:1017B000309711F0BA010994089585ED8093BC002B
:1017C0008091BC0084FDFCCF1092700308950895B1
:1017D000E091FB028091FA02E81730F4F0E0E65263
:1017E000FD4F808190E008958FEF9FEF08959091D5
:1017F000FB028091FA02981750F4E92FF0E0E652CC
:10180000FD4F208130E09F5F9093FB0202C02FEFDD
:101810003FEFC9010895009721F0805C9F4F0C9421
:1018200091100895FC01848DDF01A80FB11DA35A0A
:10183000BF4F2C91848D90E001968F739927848FF0
:10184000A689B7892C93A089B1898C9180648C93E7
:10185000938D848D981306C00288F389E02D8081D2
:101860008F7D8083089590E0FC01E052FF4F34911A
:10187000FC01E453FF4F2491FC01E854FF4FE49135
:10188000EE2309F43BC0332339F1333091F038F4BF
:101890003130A9F0323001F584B58F7D12C0373078
:1018A00091F03830A1F03430B9F4809180008F7D10
:1018B00003C0809180008F77809380000DC084B535
:1018C0008F7784BD09C08091B0008F7703C080916D
:1018D000B0008F7D8093B000F0E0EE0FFF1FE25567
:1018E000FF4FA591B4918FB7F894EC91611103C0AB
:1018F00020952E2301C02E2B2C938FBF0895CF93BC
:10190000DF9390E0FC01E453FF4F2491FC01E85485
:10191000FF4F8491882361F190E0880F991FFC01AB
:10192000EC55FF4FC591D491FC01E255FF4FA591B5
:10193000B491611109C09FB7F894888120958223E2
:101940008883EC912E230BC0623061F49FB7F8942A
:101950003881822F809583238883EC912E2B2C93C2
:101960009FBF06C08FB7F894E8812E2B28838FBFC6
:10197000DF91CF9108958E3008F08E50877080648B
:1019800080937C0080917A00806480937A008091BB
:101990007A0086FDFCCF809178002091790090E05C
:1019A000922B08958F929F92AF92BF92CF92DF9227
:1019B000EF92FF926B017C010E94680B4B015C016E
:1019C000C114D104E104F104F1F00E94680BDC01C0
:1019D000CB0188199909AA09BB09883E9340A10542
:1019E000B10570F321E0C21AD108E108F10888EED0
:1019F000880E83E0981EA11CB11CC114D104E1041F
:101A0000F10419F7DDCFFF90EF90DF90CF90BF90FA
:101A1000AF909F908F9008951F920F920FB60F92E4
:101A200011242F933F938F939F93AF93BF938091F4
:101A3000A4029091A502A091A602B091A7023091B4
:101A4000450323E0230F2D3720F40196A11DB11D7E
:101A500005C026E8230F0296A11DB11D2093450362
:101A60008093A4029093A502A093A602B093A7022C
:101A70008091460390914703A0914803B091490398
:101A80000196A11DB11D8093460390934703A09337
:101A90004803B0934903BF91AF919F918F913F91BC
:101AA0002F910F900FBE0F901F9018951F920F92BD
:101AB0000FB60F9211240F900FBE0F901F90189524
:101AC0002F923F925F926F927F928F929F92AF92EE
:101AD000BF92CF92DF92EF92FF920F931F93CF931B
:101AE000DF937C013901DA015C90232B19F4662421
:101AF0006A94762C8A011A01260E371EC0E0D0E0C7
:101B0000812C912C87E0C82ED12C0215130509F4E5
:101B100044C08614970408F068C05801F70180811A
:101B20009181FC01A081B181F80121918F01E22F07
:101B30000C2E01C0EE0F0A94EAF7652D6E2B6F771D
:101B4000ED91FC9109958FEF881A980AD5016C9157
:101B500070E0C6018C1B9D0B02C0759567958A9538
:101B6000E2F7562E2196C730D10578F286149704F5
:101B700061F2F70180819181DC01ED91FC91652D8D
:101B80006F770190F081E02D0995BFEF8B1A9B0ACA
:101B9000551C5524551C2797E6CF209731F1861404
:101BA000970418F5F70180819181DC01ED91FC919A
:101BB00061E070E001C0660FCA95EAF761506521E7
:101BC0000190F081E02DDF91CF911F910F91FF9057
:101BD000EF90DF90CF90BF90AF909F908F907F90CD
:101BE0006F905F903F902F900994DF91CF911F915C
:101BF0000F91FF90EF90DF90CF90BF90AF909F90AC
:101C00008F907F906F905F903F902F900895DF921C
:101C1000EF92FF920F931F93CF93DF93FC01E05855
:101C2000FF4FD080DD2009F45CC031960081118126
:101C3000D8011196FC901197EC90EC01C05CDF4F3D
:101C400088819981009709F44CC0DC01ED91FC91E9
:101C50000190F081E02D60EF099588819981DC0188
:101C6000ED91FC910190F081E02D69E70995888163
:101C70009981DC01ED91FC910190F081E02D6E2DB8
:101C8000099588819981DC01ED91FC910190F081A9
:101C9000E02D6F2D09957801B2E0EB0EF11C0D0DD2
:101CA000111DE016F10661F020E030E0A70161E0CF
:101CB00070E0CE010E94600DEFEFEE1AFE0AF1CF48
:101CC00088819981DC01ED91FC910190F081E02DFA
:101CD00067EFDF91CF911F910F91FF90EF90DF9011
:101CE0000994DF91CF911F910F91FF90EF90DF90BA
:101CF0000895009711F00C94070E08951F920F920B
:101D00000FB60F9211242F933F934F935F936F93CE
:101D10007F938F939F93AF93BF93EF93FF938091A4
:101D2000B900887F803609F49CC068F5883209F4D0
:101D30005BC090F4803109F454C038F4882309F46E
:101D4000F6C0883009F44DC0F6C0883109F44CC0A3
:101D5000803209F45DC0EFC0803409F468C048F4F3
:101D6000803309F455C0883309F0E5C080936E03D1
:101D7000D8C0803509F44FC0883509F45DC0883477
:101D800009F0D9C0D6C0883909F4C7C0A8F488378B
:101D900009F467C038F4883609F463C0803709F461
:101DA00060C0C9C0883809F4B8C0803909F45FC080
:101DB000803809F0C0C05BC0803B09F486C038F4AD
:101DC000803A09F466C0883A09F47FC0B4C0803C08
:101DD00009F4A7C0883C09F4A4C0883B09F48AC070
:101DE000AAC080914B0310C090916D0380916C0349
:101DF000981770F5E0916D0381E08E0F80936D036D
:101E0000F0E0E45BFC4F80818093BB0085EC86C0F2
:101E100080936E038EC0E0916D0381E08E0F8093FE
:101E20006D038091BB00F0E0E45BFC4F80839091F8
:101E30006D0380916C036EC0E0916D0381E08E0FA5
:101E400080936D038091BB00F0E0E45BFC4F8083E6
:101E500080916F0381116DC081E080934A0384EA11
:101E600061C083E08093700310924203CFCF8091D2
:101E70004203803208F051C0E091420381E08E0FAE
:101E8000809342038091BB00F0E0EE5DFC4F8083C5
:101E9000BDCF85EC8093BC0010927003809142030B
:101EA000803230F4E0914203F0E0EE5DFC4F1082AE
:101EB0006091420370E0E0912003F091210382E2FF
:101EC00093E009951092420336C084E0809370033A
:101ED00010921F0310921E03E0911C03F0911D034A
:101EE000099580911E03811105C081E080931E0336
:101EF0001092FC02E0911F0381E08E0F80931F037C
:101F0000F0E0E450FD4F80818093BB0090911F036F
:101F100080911E03981708F479CF85E88093BC0060
:101F20000AC085EC8093BC001092700304C010922C
:101F30006E030E94DD0BFF91EF91BF91AF919F91D6
:101F40008F917F916F915F914F913F912F910F9062
:101F50000FBE0F901F90189540911E03262F30E062
:101F6000240F311D21323105DCF42091700324301F
:101F7000C9F4FC0180E090E0861758F430911E030C
:101F80002191DC01A450BD4FA30FB11D2C930196EC
:101F9000F3CF80911E03680F60931E0380E00895C5
:101FA00081E0089582E008951F93CF93DF9300D0DE
:101FB000CDB7DEB7182F7A83698380917204909130
:101FC0007304009709F44EC0DC01ED91FC911031CF
:101FD000A8F46115704490F4612F606E0190F08157
:101FE000E02D099522E030E0AE014F5F5F4F62E0E7
:101FF00070E082E794E00E94600D34C00190F081AF
:10200000E02D60EF09958091720490917304DC01DA
:10201000ED91FC910190F081E02D6FE609958091A2
:10202000720490917304DC01ED91FC910190F081B8
:10203000E02D612F099522E030E0AE014F5F5F4F48
:1020400062E070E082E794E00E94600D809172048B
:1020500090917304DC01ED91FC910190F081E02DF1
:1020600067EF09950F900F90DF91CF911F91089521
:10207000EF92FF920F931F93CF93DF93C82F80911E
:102080007204909173040097C9F17A018B01DC010D
:10209000ED91FC910190F081E02D60EF0995809128
:1020A000720490917304DC01ED91FC910190F08138
:1020B000E02D6C2F0995E7010E0D1F1DC017D107EC
:1020C00059F020E030E0AE0161E070E082E794E09A
:1020D0000E94600D2196F2CF80917204909173045A
:1020E000DC01ED91FC910190F081E02D67EFDF9133
:1020F000CF911F910F91FF90EF900994DF91CF91B5
:102100001F910F91FF90EF900895FC010190002026
:10211000E9F73197BF01681B790BAC0181E70C949B
:102120003810CF93DF93FC01A081B181109701F1AA
:10213000EC01ED91FC9111970190F081E02D69EF98
:10214000CD01099588819981DC01ED91FC91019087
:10215000F081E02D62E0099588819981DC01ED91A3
:10216000FC910190F081E02D65E0DF91CF91099421
:10217000DF91CF910895A091B004B091B104ED9199
:10218000FC9111970190F081E02D682FCD01099409
:10219000382F2091940390919303213208F049C085
:1021A000809170038111FCCF42E040937003309323
:1021B0006F033FEF30936E0310926D0320936C0317
:1021C000A3E7B3E04CE453E0FA013E2F341B32178F
:1021D00018F43D913193F9CF10924B0320914B03AA
:1021E000990F922B90934B0390914A03913061F495
:1021F00010924A0390914B039093BB009091BC00C6
:1022000093FDF8CF95EC01C095EE9093BC009091B2
:1022100070039230E1F390916E039F3F79F08091CB
:102220006E03803241F080916E03803331F084E0A0
:1022300005C081E003C082E001C083E01092720318
:10224000109294031092710308951F93CF93DF931C
:10225000182FEB0180917704909178046817790723
:1022600048F46091750470917604C60FD71F1883E7
:1022700080E018C0E091A404F091A504309711F417
:1022800081E010C081E0809374048091900490916B
:10229000910409958091770490917804C817D90723
:1022A00078F7DFCFDF91CF911F910895CF93DF9320
:1022B000EC01FB0120E030E0CF01861B970B2C17CF
:1022C0003D0778F4DB01A20FB31F9C919083119618
:1022D0004C91479544274795942B91932E5F3F4F00
:1022E000EBCFDF91CF910895789484B5826084BD5F
:1022F00084B5816084BD85B5826085BD85B581600A
:1023000085BD80916E00816080936E001092810087
:102310008091810082608093810080918100816042
:102320008093810080918000816080938000809103
:10233000B10084608093B1008091B000816080938F
:10234000B00080917A00846080937A0080917A0056
:10235000826080937A0080917A00816080937A0015
:1023600080917A00806880937A001092C10085E1A4
:102370008093B2048091B3049091B4040E945F17DB
:10238000C091B204D0E0CE0101960E94CA1690938B
:10239000B4048093B304FC01EC0FFD1F108212E023
:1023A000DC011C9325E011962C93AE01425051099B
:1023B00060E172E002960E94FC1781E692E0909341
:1023C00099028093980285EC91E090939702809314
:1023D00096028EED93E0909395028093940288ED9F
:1023E00096E0909393028093920283E194E090931D
:1023F0009102809390028BE893E090938F028093F8
:102400008E028DEB97E090939B0280939A028AE86C
:1024100095E090939D0280939C02E091A503F0913A
:10242000A6031083E091A503F091A6031082E0912A
:10243000A103F091A2031082E091A303F091A40301
:1024400080E180831092AD03E091A903F091AA038B
:1024500086E08083E091A703F091A80380818061EA
:102460008083E091A703F091A80380818860808336
:10247000E091A703F091A803808180688083E091B8
:10248000A703F091A80380818F7D80838091F10460
:10249000811150C061E08DE00E947F0C62ED70E020
:1024A00080E090E00E94D20C61E08DE00E94330C4D
:1024B00068E270E080E090E00E94D20C60E08DE085
:1024C0000E94330C62ED70E080E090E00E94D20C3C
:1024D00061E08DE00E94330C68E270E080E090E003
:1024E0000E94D20C60E08DE00E94330C6AEF70E035
:1024F00080E090E00E94D20CC0E062ED70E080E0ED
:1025000090E00E94D20C61E08DE00E94330C68E202
:1025100070E080E090E00E94D20C60E08DE00E94CC
:10252000330CCF5FC53049F76DE770E080E090E095
:102530000E94D20C85E993E09093B1048093B0049B
:10254000909373048093720482E794E00E94911048
:1025500082E394E00E94070E0E948A05EE24E39431
:10256000C2E0D0E001E010E025E0D22E8091A1028F
:10257000882349F069B180919E0268236C7F40E016
:1025800080E00E9496068091A202882379F063B1D0
:1025900096B1B0E49B9FC00111246F73862B6091AC
:1025A0009F02682340E081E00E9496068091A3028A
:1025B0008823E1F066B16C73669566958091A00200
:1025C000682340E082E00E94960610C08091B0042B
:1025D0009091B104DC01ED91FC910284F385E02D32
:1025E00009959C018F3FBFEF9B0771F48091B00468
:1025F0009091B104DC01ED91FC910084F185E02D16
:102600000995892B19F7BEC1982F80917D048823E5
:1026100009F492C0973F09F07EC010927D04A0910A
:102620007504B09176046C916137C1F1693709F096
:102630005CC0E091AA04F091AB043097B9F28091AC
:102640007E0490917F048330910538F420E030E0DF
:1026500040E050E060E070E01BC0BD016D5F7F4F67
:1026600003970E945611BC016D5F7F4F80E00E946E
:102670002511E0917504F09176049F012D5F3F4F85
:10268000428150E0618170E0E091AA04F091AB04D6
:1026900080918C0490918D040995A8CF8091A60417
:1026A0009091A704892B09F4A1CFBD016F5F7F4FE3
:1026B00080917E0490917F0401970E945611BC0185
:1026C0006F5F7F4F80E00E942511609175047091CB
:1026D00076046F5F7F4FE091A604F091A70480918C
:1026E000920490919304099581CFE091A804F09110
:1026F000A904309709F47ACF9D012F5F3F4F409195
:102700007E0450917F04415051098091940490912E
:10271000950409956BCF60917E0470917F04822FA0
:102720000E94251180917E0490917F0401969093E0
:102730007F0480937E045ACF60917B0470917C0467
:102740006115710509F4AFC027FDADC06150710975
:1027500070937C0460937B04822F0E9425118091EA
:102760007B0490917C04892B09F040CF80917904FF
:10277000882309F43BCF803D09F47FC030F48039D1
:1027800039F1803C09F466C08BC0843FE1F1853F9C
:1027900009F44DC0803E09F083C0E0919804F091A7
:1027A0009904309709F47CC0A0917504B091760427
:1027B0008C9111964C9150E020E8829F400D511D64
:1027C000112460917A04809180049091810467C003
:1027D000E0919A04F0919B04309709F461C0A091B4
:1027E0007504B09176048C9111964C9150E090E86C
:1027F000899F400D511D112460917A0480918204BB
:10280000909183044CC0E091A004F091A104309712
:1028100009F446C0A0917504B09176044C9150E043
:1028200011966C91809188049091890438C0E09150
:10283000A204F091A304309799F1A0917504B0918E
:1028400076044C9150E011966C9180918A0490919D
:102850008B0425C0E0919C04F0919D04309701F118
:10286000A0917504B09176044C9150E060917A0487
:10287000809184049091850412C0E0919E04F091AF
:102880009F04309769F0A0917504B09176044C9143
:1028900050E060917A0480918604909187040995B4
:1028A00010927904A3CE903F30F4822F8F708093E2
:1028B0007A04922F907F903F79F158F4903C29F15F
:1028C00018F49039E9F092CE903DF9F0903EC1F0C5
:1028D0008DCE993F09F449C028F48CE0890F8230ED
:1028E00078F084CE9F3F09F081CE10927C04109244
:1028F0007B041092790410927A0480E090E013C077
:10290000D0937C04C0937B0404C010937C04009398
:102910007B04909379046ACEE0927D0410927F0448
:1029200010927E0463CE2091770430917804821750
:10293000930748F4E0917504F0917604E80FF91FCD
:1029400010820196F0CF10927D0410927F041092B5
:102950007E04E091AE04F091AF04309709F446CEC6
:1029600080919604909197040BC0E091AC04F09193
:10297000AD04309709F43ACE80918E0490918F0483
:10298000099534CE8FB7F8948090A4029090A50258
:10299000A090A602B090A7028FBF8092D60290921C
:1029A000D702A092D802B092D9028091D20290911F
:1029B000D302A091D402B091D5024091010150916F
:1029C000020160E070E0881A990AAA0ABB0A481559
:1029D00059056A057B0508F052C0840F951FA61F94
:1029E000B71F8093D2029093D302A093D402B093E6
:1029F000D50285EBA82E84E0B82E92EFF92EB5E033
:102A0000BF15B8F0F5018081823099F48091D00231
:102A10009091D1020F2C02C0959587950A94E2F708
:102A200080FF07C08F2D0E94BB0CBC018F2D0E9420
:102A3000D40FF394FFEFAF1ABF0A26E0F212DFCFF4
:102A40008091000187FD1BC0F12C2F2D30E080917B
:102A50000001082E000C990B8217930784F0D29E78
:102A6000F001D39EF00D1124E855FD4F6181728174
:102A70002481438180810E94FF06F394E6CF0E9467
:102A80005E0B74CD109298031092970348EE53E0BA
:102A900060E070E04093990350939A0360939B0326
:102AA00070939C038DE091E090939603809395033F
:102AB00085EC90E09093A2038093A10384EC90E0D6
:102AC0009093A4038093A30380EC90E09093A603DB
:102AD0008093A50381EC90E09093A8038093A703D3
:102AE00082EC90E09093AA038093A90386EC90E097
:102AF0009093AC038093AB031092AE031092AF039C
:102B00001092B0031092B10382E394E01092730428
:102B100010927204909376048093750420E430E060
:102B200030937804209377041092790410927A04F9
:102B300010927C0410927B0410927D0410927F040A
:102B400010927E04109281041092800410928304EB
:102B500010928204109285041092840410928704CB
:102B600010928604109289041092880410928B04AB
:102B700010928A041092910410929004109293047F
:102B8000109292041092950410929404109297045B
:102B9000109296041092A5041092A404109274044A
:102BA0001092B2041092B4041092B3041092F10483
:102BB00023ED3BE0309399042093980429EC3BE00B
:102BC00030939B0420939A042BEA3BE030939D04BE
:102BD00020939C0421EA3BE030939F0420939E04C1
:102BE0002FEB3BE03093A1042093A00425EB3BE0C6
:102BF0003093A3042093A20420EA3BE03093A7047F
:102C00002093A60425E93BE03093A9042093A8046F
:102C100029E73EE03093AB042093AA0490938D04FF
:102C200080938C042BE03CE03093AD042093AC0403
:102C300090938F0480938E048DE89BE09093AF0473
:102C40008093AE041092F5041092F4044093F604BD
:102C50005093F7046093F8047093F9048FE191E0C6
:102C60009093F3048093F20480912205A3E2B5E0EF
:102C70009FEF48EB5BE08C3078F48C93282F30E0AA
:102C8000F901EE0FFF1F2E0F3F1FF901E250FB4F1E
:102C9000528341838F5F01C09C93139625E0A73434
:102CA000B20749F7809322050895052E97FB1EF47D
:102CB00000940E946C1657FD07D00E94871607FCEF
:102CC00003D04EF40C946C16509540953095219598
:102CD0003F4F4F4F5F4F0895909580957095619548
:102CE0007F4F8F4F9F4F08950E94A916A59F900D6B
:102CF000B49F900DA49F800D911D11240895B7FFDE
:102D00000C9474160E947416821B930B0895A1E212
:102D10001A2EAA1BBB1BFD010DC0AA1FBB1FEE1F55
:102D2000FF1FA217B307E407F50720F0A21BB30BA0
:102D3000E40BF50B661F771F881F991F1A9469F71C
:102D400060957095809590959B01AC01BD01CF0178
:102D50000895A29FB001B39FC001A39F700D811D74
:102D60001124911DB29F700D811D1124911D089594
:102D7000991B79E004C0991F961708F0961B881FCD
:102D80007A95C9F780950895EE0FFF1F0590F4918D
:102D9000E02D0994CF93DF938230910510F482E007
:102DA00090E0E0914905F0914A0520E030E0C0E074
:102DB000D0E0309711F14081518148175907C0F098
:102DC0004817590761F482819381209719F09B83FA
:102DD0008A832BC090934A058093490526C021150C
:102DE000310519F04217530718F49A01BE01DF01AB
:102DF000EF010280F381E02DDCCF2115310509F1CF
:102E0000281B390B2430310590F412968D919C913A
:102E100013976115710521F0FB019383828304C030
:102E200090934A0580934905FD01329644C0FD0107
:102E3000E20FF31F81939193225031092D933C931C
:102E40003AC02091470530914805232B41F4209149
:102E500005013091060130934805209347052091E4
:102E60000301309104012115310541F42DB73EB71E
:102E70004091070150910801241B350BE091470553
:102E8000F0914805E217F307A0F42E1B3F0B28171B
:102E9000390778F0AC014E5F5F4F2417350748F0D3
:102EA0004E0F5F1F509348054093470581939193C0
:102EB00002C0E0E0F0E0CF01DF91CF9108950F93E1
:102EC0001F93CF93DF93009709F48CC0FC013297D6
:102ED000138212820091490510914A0501151105CE
:102EE00081F420813181820F931F20914705309119
:102EF00048052817390779F5F0934805E093470509
:102F000071C0D80140E050E0AE17BF0750F41296F0
:102F10002D913C911397AD012115310509F1D9018E
:102F2000F3CF9D01DA013383228360817181860FA3
:102F3000971F8217930769F4EC0128813981260FC6
:102F4000371F2E5F3F4F318320838A819B8193837C
:102F50008283452B29F4F0934A05E093490542C04A
:102F60001396FC93EE931297ED01499159919E01AE
:102F7000240F351FE217F30771F480819181840FCC
:102F8000951F029611969C938E938281938113963E
:102F90009C938E931297E0E0F0E0D80112968D9109
:102FA0009C911397009719F0F8018C01F6CF8D9141
:102FB0009C9198012E5F3F4F820F931F20914705F0
:102FC000309148052817390769F4309729F4109291
:102FD0004A051092490502C01382128210934805D7
:102FE00000934705DF91CF911F910F91089581E0E4
:102FF00090E0F8940C940B18FB01DC014150504018
:1030000048F001900D920020C9F701C01D92415077
:0A3010005040E0F70895F894FFCF58
:10301A00FF130000004B05800000000000910A2900
:10302A000A540AD80A520B630A770A0000000014ED
:10303A0001E400AE00E70BA500F70BE80B4D617841
:10304A0020736572766F7320617474616368656456
:10305A0000556E6B6E6F776E2070696E206D6F64AF
:10306A0065004932433A20546F6F206D616E7920B2
:10307A00627974657320726563656976656400496F
:10308A0032433A20546F6F206665772062797465FF
:10309A00732072656365697665640031302D6269F3
:1030AA00742061646472657373696E67206E6F74ED
:1030BA0020737570706F7274656400746F6F206D21
:1030CA00616E79207175657269657300433A5C5562
:1030DA00736572735C54686961676F2050657373B6
:1030EA0069615C446F63756D656E74735C4172648B
:1030FA0075696E6F5C6C69627261726965735C4650
:10310A0069726D6174615C6578616D706C65735C20
:10311A005374616E646172644669726D6174615C54
:10312A005374616E646172644669726D6174612E72
:04313A00696E6F004B
:00000001FF
